{
	".deps/contracts/Members.sol": {
		"Members": {
			"abi": [
				{
					"inputs": [
						{
							"internalType": "uint256",
							"name": "id",
							"type": "uint256"
						}
					],
					"name": "getMember",
					"outputs": [
						{
							"internalType": "string",
							"name": "",
							"type": "string"
						},
						{
							"internalType": "address",
							"name": "",
							"type": "address"
						}
					],
					"stateMutability": "view",
					"type": "function"
				},
				{
					"inputs": [
						{
							"internalType": "uint256",
							"name": "",
							"type": "uint256"
						}
					],
					"name": "memberIds",
					"outputs": [
						{
							"internalType": "uint256",
							"name": "",
							"type": "uint256"
						}
					],
					"stateMutability": "view",
					"type": "function"
				},
				{
					"inputs": [
						{
							"internalType": "string",
							"name": "username",
							"type": "string"
						},
						{
							"internalType": "address",
							"name": "useraddress",
							"type": "address"
						},
						{
							"internalType": "uint256",
							"name": "id",
							"type": "uint256"
						}
					],
					"name": "registerMember",
					"outputs": [],
					"stateMutability": "nonpayable",
					"type": "function"
				}
			],
			"devdoc": {
				"kind": "dev",
				"methods": {},
				"version": 1
			},
			"evm": {
				"assembly": "    /* \".deps/contracts/Members.sol\":60:763  contract Members{... */\n  mstore(0x40, 0x80)\n  callvalue\n  dup1\n  iszero\n  tag_1\n  jumpi\n  0x00\n  dup1\n  revert\ntag_1:\n  pop\n  dataSize(sub_0)\n  dup1\n  dataOffset(sub_0)\n  0x00\n  codecopy\n  0x00\n  return\nstop\n\nsub_0: assembly {\n        /* \".deps/contracts/Members.sol\":60:763  contract Members{... */\n      mstore(0x40, 0x80)\n      callvalue\n      dup1\n      iszero\n      tag_1\n      jumpi\n      0x00\n      dup1\n      revert\n    tag_1:\n      pop\n      jumpi(tag_2, lt(calldatasize, 0x04))\n      shr(0xe0, calldataload(0x00))\n      dup1\n      0x1fd3c85b\n      eq\n      tag_3\n      jumpi\n      dup1\n      0xab3545e5\n      eq\n      tag_4\n      jumpi\n      dup1\n      0xe0bda320\n      eq\n      tag_5\n      jumpi\n    tag_2:\n      0x00\n      dup1\n      revert\n        /* \".deps/contracts/Members.sol\":219:245  uint256[] public memberIds */\n    tag_3:\n      tag_6\n      0x04\n      dup1\n      calldatasize\n      sub\n      dup2\n      add\n      swap1\n      tag_7\n      swap2\n      swap1\n      tag_8\n      jump\t// in\n    tag_7:\n      tag_9\n      jump\t// in\n    tag_6:\n      mload(0x40)\n      tag_10\n      swap2\n      swap1\n      tag_11\n      jump\t// in\n    tag_10:\n      mload(0x40)\n      dup1\n      swap2\n      sub\n      swap1\n      return\n        /* \".deps/contracts/Members.sol\":585:758  function getMember(uint256 id) public view returns(string memory, address) {... */\n    tag_4:\n      tag_12\n      0x04\n      dup1\n      calldatasize\n      sub\n      dup2\n      add\n      swap1\n      tag_13\n      swap2\n      swap1\n      tag_8\n      jump\t// in\n    tag_13:\n      tag_14\n      jump\t// in\n    tag_12:\n      mload(0x40)\n      tag_15\n      swap3\n      swap2\n      swap1\n      tag_16\n      jump\t// in\n    tag_15:\n      mload(0x40)\n      dup1\n      swap2\n      sub\n      swap1\n      return\n        /* \".deps/contracts/Members.sol\":254:577  function registerMember(string memory username,... */\n    tag_5:\n      tag_17\n      0x04\n      dup1\n      calldatasize\n      sub\n      dup2\n      add\n      swap1\n      tag_18\n      swap2\n      swap1\n      tag_19\n      jump\t// in\n    tag_18:\n      tag_20\n      jump\t// in\n    tag_17:\n      stop\n        /* \".deps/contracts/Members.sol\":219:245  uint256[] public memberIds */\n    tag_9:\n      0x01\n      dup2\n      dup2\n      sload\n      dup2\n      lt\n      tag_21\n      jumpi\n      0x00\n      dup1\n      revert\n    tag_21:\n      swap1\n      0x00\n      mstore\n      keccak256(0x00, 0x20)\n      add\n      0x00\n      swap2\n      pop\n      swap1\n      pop\n      sload\n      dup2\n      jump\t// out\n        /* \".deps/contracts/Members.sol\":585:758  function getMember(uint256 id) public view returns(string memory, address) {... */\n    tag_14:\n        /* \".deps/contracts/Members.sol\":636:649  string memory */\n      0x60\n        /* \".deps/contracts/Members.sol\":651:658  address */\n      0x00\n        /* \".deps/contracts/Members.sol\":671:691  memberInfo storage m */\n      dup1\n        /* \".deps/contracts/Members.sol\":694:701  members */\n      0x00\n        /* \".deps/contracts/Members.sol\":694:705  members[id] */\n      dup1\n        /* \".deps/contracts/Members.sol\":702:704  id */\n      dup6\n        /* \".deps/contracts/Members.sol\":694:705  members[id] */\n      dup2\n      mstore\n      0x20\n      add\n      swap1\n      dup2\n      mstore\n      0x20\n      add\n      0x00\n      keccak256\n        /* \".deps/contracts/Members.sol\":671:705  memberInfo storage m = members[id] */\n      swap1\n      pop\n        /* \".deps/contracts/Members.sol\":724:725  m */\n      dup1\n        /* \".deps/contracts/Members.sol\":724:734  m.username */\n      0x00\n      add\n        /* \".deps/contracts/Members.sol\":736:737  m */\n      dup2\n        /* \".deps/contracts/Members.sol\":736:749  m.useraddress */\n      0x01\n      add\n      0x00\n      swap1\n      sload\n      swap1\n      0x0100\n      exp\n      swap1\n      div\n      0xffffffffffffffffffffffffffffffffffffffff\n      and\n        /* \".deps/contracts/Members.sol\":716:750  return (m.username, m.useraddress) */\n      dup2\n      dup1\n      sload\n      tag_24\n      swap1\n      tag_25\n      jump\t// in\n    tag_24:\n      dup1\n      0x1f\n      add\n      0x20\n      dup1\n      swap2\n      div\n      mul\n      0x20\n      add\n      mload(0x40)\n      swap1\n      dup2\n      add\n      0x40\n      mstore\n      dup1\n      swap3\n      swap2\n      swap1\n      dup2\n      dup2\n      mstore\n      0x20\n      add\n      dup3\n      dup1\n      sload\n      tag_26\n      swap1\n      tag_25\n      jump\t// in\n    tag_26:\n      dup1\n      iszero\n      tag_27\n      jumpi\n      dup1\n      0x1f\n      lt\n      tag_28\n      jumpi\n      0x0100\n      dup1\n      dup4\n      sload\n      div\n      mul\n      dup4\n      mstore\n      swap2\n      0x20\n      add\n      swap2\n      jump(tag_27)\n    tag_28:\n      dup3\n      add\n      swap2\n      swap1\n      0x00\n      mstore\n      keccak256(0x00, 0x20)\n      swap1\n    tag_29:\n      dup2\n      sload\n      dup2\n      mstore\n      swap1\n      0x01\n      add\n      swap1\n      0x20\n      add\n      dup1\n      dup4\n      gt\n      tag_29\n      jumpi\n      dup3\n      swap1\n      sub\n      0x1f\n      and\n      dup3\n      add\n      swap2\n    tag_27:\n      pop\n      pop\n      pop\n      pop\n      pop\n      swap2\n      pop\n      swap3\n      pop\n      swap3\n      pop\n      pop\n        /* \".deps/contracts/Members.sol\":585:758  function getMember(uint256 id) public view returns(string memory, address) {... */\n      swap2\n      pop\n      swap2\n      jump\t// out\n        /* \".deps/contracts/Members.sol\":254:577  function registerMember(string memory username,... */\n    tag_20:\n        /* \".deps/contracts/Members.sol\":412:440  memberInfo storage newMember */\n      0x00\n        /* \".deps/contracts/Members.sol\":443:450  members */\n      dup1\n        /* \".deps/contracts/Members.sol\":443:454  members[id] */\n      0x00\n        /* \".deps/contracts/Members.sol\":451:453  id */\n      dup4\n        /* \".deps/contracts/Members.sol\":443:454  members[id] */\n      dup2\n      mstore\n      0x20\n      add\n      swap1\n      dup2\n      mstore\n      0x20\n      add\n      0x00\n      keccak256\n        /* \".deps/contracts/Members.sol\":412:454  memberInfo storage newMember = members[id] */\n      swap1\n      pop\n        /* \".deps/contracts/Members.sol\":486:494  username */\n      dup4\n        /* \".deps/contracts/Members.sol\":465:474  newMember */\n      dup2\n        /* \".deps/contracts/Members.sol\":465:483  newMember.username */\n      0x00\n      add\n        /* \".deps/contracts/Members.sol\":465:494  newMember.username = username */\n      swap1\n      dup2\n      tag_31\n      swap2\n      swap1\n      tag_32\n      jump\t// in\n    tag_31:\n      pop\n        /* \".deps/contracts/Members.sol\":529:540  useraddress */\n      dup3\n        /* \".deps/contracts/Members.sol\":505:514  newMember */\n      dup2\n        /* \".deps/contracts/Members.sol\":505:526  newMember.useraddress */\n      0x01\n      add\n      0x00\n        /* \".deps/contracts/Members.sol\":505:540  newMember.useraddress = useraddress */\n      0x0100\n      exp\n      dup2\n      sload\n      dup2\n      0xffffffffffffffffffffffffffffffffffffffff\n      mul\n      not\n      and\n      swap1\n      dup4\n      0xffffffffffffffffffffffffffffffffffffffff\n      and\n      mul\n      or\n      swap1\n      sstore\n      pop\n        /* \".deps/contracts/Members.sol\":551:560  memberIds */\n      0x01\n        /* \".deps/contracts/Members.sol\":566:568  id */\n      dup3\n        /* \".deps/contracts/Members.sol\":551:569  memberIds.push(id) */\n      swap1\n      dup1\n      0x01\n      dup2\n      sload\n      add\n      dup1\n      dup3\n      sstore\n      dup1\n      swap2\n      pop\n      pop\n      0x01\n      swap1\n      sub\n      swap1\n      0x00\n      mstore\n      keccak256(0x00, 0x20)\n      add\n      0x00\n      swap1\n      swap2\n      swap1\n      swap2\n      swap1\n      swap2\n      pop\n      sstore\n        /* \".deps/contracts/Members.sol\":401:577  {... */\n      pop\n        /* \".deps/contracts/Members.sol\":254:577  function registerMember(string memory username,... */\n      pop\n      pop\n      pop\n      jump\t// out\n        /* \"#utility.yul\":7:82   */\n    tag_34:\n        /* \"#utility.yul\":40:46   */\n      0x00\n        /* \"#utility.yul\":73:75   */\n      0x40\n        /* \"#utility.yul\":67:76   */\n      mload\n        /* \"#utility.yul\":57:76   */\n      swap1\n      pop\n        /* \"#utility.yul\":7:82   */\n      swap1\n      jump\t// out\n        /* \"#utility.yul\":88:205   */\n    tag_35:\n        /* \"#utility.yul\":197:198   */\n      0x00\n        /* \"#utility.yul\":194:195   */\n      dup1\n        /* \"#utility.yul\":187:199   */\n      revert\n        /* \"#utility.yul\":211:328   */\n    tag_36:\n        /* \"#utility.yul\":320:321   */\n      0x00\n        /* \"#utility.yul\":317:318   */\n      dup1\n        /* \"#utility.yul\":310:322   */\n      revert\n        /* \"#utility.yul\":334:411   */\n    tag_37:\n        /* \"#utility.yul\":371:378   */\n      0x00\n        /* \"#utility.yul\":400:405   */\n      dup2\n        /* \"#utility.yul\":389:405   */\n      swap1\n      pop\n        /* \"#utility.yul\":334:411   */\n      swap2\n      swap1\n      pop\n      jump\t// out\n        /* \"#utility.yul\":417:539   */\n    tag_38:\n        /* \"#utility.yul\":490:514   */\n      tag_82\n        /* \"#utility.yul\":508:513   */\n      dup2\n        /* \"#utility.yul\":490:514   */\n      tag_37\n      jump\t// in\n    tag_82:\n        /* \"#utility.yul\":483:488   */\n      dup2\n        /* \"#utility.yul\":480:515   */\n      eq\n        /* \"#utility.yul\":470:533   */\n      tag_83\n      jumpi\n        /* \"#utility.yul\":529:530   */\n      0x00\n        /* \"#utility.yul\":526:527   */\n      dup1\n        /* \"#utility.yul\":519:531   */\n      revert\n        /* \"#utility.yul\":470:533   */\n    tag_83:\n        /* \"#utility.yul\":417:539   */\n      pop\n      jump\t// out\n        /* \"#utility.yul\":545:684   */\n    tag_39:\n        /* \"#utility.yul\":591:596   */\n      0x00\n        /* \"#utility.yul\":629:635   */\n      dup2\n        /* \"#utility.yul\":616:636   */\n      calldataload\n        /* \"#utility.yul\":607:636   */\n      swap1\n      pop\n        /* \"#utility.yul\":645:678   */\n      tag_85\n        /* \"#utility.yul\":672:677   */\n      dup2\n        /* \"#utility.yul\":645:678   */\n      tag_38\n      jump\t// in\n    tag_85:\n        /* \"#utility.yul\":545:684   */\n      swap3\n      swap2\n      pop\n      pop\n      jump\t// out\n        /* \"#utility.yul\":690:1019   */\n    tag_8:\n        /* \"#utility.yul\":749:755   */\n      0x00\n        /* \"#utility.yul\":798:800   */\n      0x20\n        /* \"#utility.yul\":786:795   */\n      dup3\n        /* \"#utility.yul\":777:784   */\n      dup5\n        /* \"#utility.yul\":773:796   */\n      sub\n        /* \"#utility.yul\":769:801   */\n      slt\n        /* \"#utility.yul\":766:885   */\n      iszero\n      tag_87\n      jumpi\n        /* \"#utility.yul\":804:883   */\n      tag_88\n      tag_35\n      jump\t// in\n    tag_88:\n        /* \"#utility.yul\":766:885   */\n    tag_87:\n        /* \"#utility.yul\":924:925   */\n      0x00\n        /* \"#utility.yul\":949:1002   */\n      tag_89\n        /* \"#utility.yul\":994:1001   */\n      dup5\n        /* \"#utility.yul\":985:991   */\n      dup3\n        /* \"#utility.yul\":974:983   */\n      dup6\n        /* \"#utility.yul\":970:992   */\n      add\n        /* \"#utility.yul\":949:1002   */\n      tag_39\n      jump\t// in\n    tag_89:\n        /* \"#utility.yul\":939:1002   */\n      swap2\n      pop\n        /* \"#utility.yul\":895:1012   */\n      pop\n        /* \"#utility.yul\":690:1019   */\n      swap3\n      swap2\n      pop\n      pop\n      jump\t// out\n        /* \"#utility.yul\":1025:1143   */\n    tag_40:\n        /* \"#utility.yul\":1112:1136   */\n      tag_91\n        /* \"#utility.yul\":1130:1135   */\n      dup2\n        /* \"#utility.yul\":1112:1136   */\n      tag_37\n      jump\t// in\n    tag_91:\n        /* \"#utility.yul\":1107:1110   */\n      dup3\n        /* \"#utility.yul\":1100:1137   */\n      mstore\n        /* \"#utility.yul\":1025:1143   */\n      pop\n      pop\n      jump\t// out\n        /* \"#utility.yul\":1149:1371   */\n    tag_11:\n        /* \"#utility.yul\":1242:1246   */\n      0x00\n        /* \"#utility.yul\":1280:1282   */\n      0x20\n        /* \"#utility.yul\":1269:1278   */\n      dup3\n        /* \"#utility.yul\":1265:1283   */\n      add\n        /* \"#utility.yul\":1257:1283   */\n      swap1\n      pop\n        /* \"#utility.yul\":1293:1364   */\n      tag_93\n        /* \"#utility.yul\":1361:1362   */\n      0x00\n        /* \"#utility.yul\":1350:1359   */\n      dup4\n        /* \"#utility.yul\":1346:1363   */\n      add\n        /* \"#utility.yul\":1337:1343   */\n      dup5\n        /* \"#utility.yul\":1293:1364   */\n      tag_40\n      jump\t// in\n    tag_93:\n        /* \"#utility.yul\":1149:1371   */\n      swap3\n      swap2\n      pop\n      pop\n      jump\t// out\n        /* \"#utility.yul\":1377:1476   */\n    tag_41:\n        /* \"#utility.yul\":1429:1435   */\n      0x00\n        /* \"#utility.yul\":1463:1468   */\n      dup2\n        /* \"#utility.yul\":1457:1469   */\n      mload\n        /* \"#utility.yul\":1447:1469   */\n      swap1\n      pop\n        /* \"#utility.yul\":1377:1476   */\n      swap2\n      swap1\n      pop\n      jump\t// out\n        /* \"#utility.yul\":1482:1651   */\n    tag_42:\n        /* \"#utility.yul\":1566:1577   */\n      0x00\n        /* \"#utility.yul\":1600:1606   */\n      dup3\n        /* \"#utility.yul\":1595:1598   */\n      dup3\n        /* \"#utility.yul\":1588:1607   */\n      mstore\n        /* \"#utility.yul\":1640:1644   */\n      0x20\n        /* \"#utility.yul\":1635:1638   */\n      dup3\n        /* \"#utility.yul\":1631:1645   */\n      add\n        /* \"#utility.yul\":1616:1645   */\n      swap1\n      pop\n        /* \"#utility.yul\":1482:1651   */\n      swap3\n      swap2\n      pop\n      pop\n      jump\t// out\n        /* \"#utility.yul\":1657:1903   */\n    tag_43:\n        /* \"#utility.yul\":1738:1739   */\n      0x00\n        /* \"#utility.yul\":1748:1861   */\n    tag_97:\n        /* \"#utility.yul\":1762:1768   */\n      dup4\n        /* \"#utility.yul\":1759:1760   */\n      dup2\n        /* \"#utility.yul\":1756:1769   */\n      lt\n        /* \"#utility.yul\":1748:1861   */\n      iszero\n      tag_99\n      jumpi\n        /* \"#utility.yul\":1847:1848   */\n      dup1\n        /* \"#utility.yul\":1842:1845   */\n      dup3\n        /* \"#utility.yul\":1838:1849   */\n      add\n        /* \"#utility.yul\":1832:1850   */\n      mload\n        /* \"#utility.yul\":1828:1829   */\n      dup2\n        /* \"#utility.yul\":1823:1826   */\n      dup5\n        /* \"#utility.yul\":1819:1830   */\n      add\n        /* \"#utility.yul\":1812:1851   */\n      mstore\n        /* \"#utility.yul\":1784:1786   */\n      0x20\n        /* \"#utility.yul\":1781:1782   */\n      dup2\n        /* \"#utility.yul\":1777:1787   */\n      add\n        /* \"#utility.yul\":1772:1787   */\n      swap1\n      pop\n        /* \"#utility.yul\":1748:1861   */\n      jump(tag_97)\n    tag_99:\n        /* \"#utility.yul\":1895:1896   */\n      0x00\n        /* \"#utility.yul\":1886:1892   */\n      dup5\n        /* \"#utility.yul\":1881:1884   */\n      dup5\n        /* \"#utility.yul\":1877:1893   */\n      add\n        /* \"#utility.yul\":1870:1897   */\n      mstore\n        /* \"#utility.yul\":1719:1903   */\n      pop\n        /* \"#utility.yul\":1657:1903   */\n      pop\n      pop\n      pop\n      jump\t// out\n        /* \"#utility.yul\":1909:2011   */\n    tag_44:\n        /* \"#utility.yul\":1950:1956   */\n      0x00\n        /* \"#utility.yul\":2001:2003   */\n      0x1f\n        /* \"#utility.yul\":1997:2004   */\n      not\n        /* \"#utility.yul\":1992:1994   */\n      0x1f\n        /* \"#utility.yul\":1985:1990   */\n      dup4\n        /* \"#utility.yul\":1981:1995   */\n      add\n        /* \"#utility.yul\":1977:2005   */\n      and\n        /* \"#utility.yul\":1967:2005   */\n      swap1\n      pop\n        /* \"#utility.yul\":1909:2011   */\n      swap2\n      swap1\n      pop\n      jump\t// out\n        /* \"#utility.yul\":2017:2394   */\n    tag_45:\n        /* \"#utility.yul\":2105:2108   */\n      0x00\n        /* \"#utility.yul\":2133:2172   */\n      tag_102\n        /* \"#utility.yul\":2166:2171   */\n      dup3\n        /* \"#utility.yul\":2133:2172   */\n      tag_41\n      jump\t// in\n    tag_102:\n        /* \"#utility.yul\":2188:2259   */\n      tag_103\n        /* \"#utility.yul\":2252:2258   */\n      dup2\n        /* \"#utility.yul\":2247:2250   */\n      dup6\n        /* \"#utility.yul\":2188:2259   */\n      tag_42\n      jump\t// in\n    tag_103:\n        /* \"#utility.yul\":2181:2259   */\n      swap4\n      pop\n        /* \"#utility.yul\":2268:2333   */\n      tag_104\n        /* \"#utility.yul\":2326:2332   */\n      dup2\n        /* \"#utility.yul\":2321:2324   */\n      dup6\n        /* \"#utility.yul\":2314:2318   */\n      0x20\n        /* \"#utility.yul\":2307:2312   */\n      dup7\n        /* \"#utility.yul\":2303:2319   */\n      add\n        /* \"#utility.yul\":2268:2333   */\n      tag_43\n      jump\t// in\n    tag_104:\n        /* \"#utility.yul\":2358:2387   */\n      tag_105\n        /* \"#utility.yul\":2380:2386   */\n      dup2\n        /* \"#utility.yul\":2358:2387   */\n      tag_44\n      jump\t// in\n    tag_105:\n        /* \"#utility.yul\":2353:2356   */\n      dup5\n        /* \"#utility.yul\":2349:2388   */\n      add\n        /* \"#utility.yul\":2342:2388   */\n      swap2\n      pop\n        /* \"#utility.yul\":2109:2394   */\n      pop\n        /* \"#utility.yul\":2017:2394   */\n      swap3\n      swap2\n      pop\n      pop\n      jump\t// out\n        /* \"#utility.yul\":2400:2526   */\n    tag_46:\n        /* \"#utility.yul\":2437:2444   */\n      0x00\n        /* \"#utility.yul\":2477:2519   */\n      0xffffffffffffffffffffffffffffffffffffffff\n        /* \"#utility.yul\":2470:2475   */\n      dup3\n        /* \"#utility.yul\":2466:2520   */\n      and\n        /* \"#utility.yul\":2455:2520   */\n      swap1\n      pop\n        /* \"#utility.yul\":2400:2526   */\n      swap2\n      swap1\n      pop\n      jump\t// out\n        /* \"#utility.yul\":2532:2628   */\n    tag_47:\n        /* \"#utility.yul\":2569:2576   */\n      0x00\n        /* \"#utility.yul\":2598:2622   */\n      tag_108\n        /* \"#utility.yul\":2616:2621   */\n      dup3\n        /* \"#utility.yul\":2598:2622   */\n      tag_46\n      jump\t// in\n    tag_108:\n        /* \"#utility.yul\":2587:2622   */\n      swap1\n      pop\n        /* \"#utility.yul\":2532:2628   */\n      swap2\n      swap1\n      pop\n      jump\t// out\n        /* \"#utility.yul\":2634:2752   */\n    tag_48:\n        /* \"#utility.yul\":2721:2745   */\n      tag_110\n        /* \"#utility.yul\":2739:2744   */\n      dup2\n        /* \"#utility.yul\":2721:2745   */\n      tag_47\n      jump\t// in\n    tag_110:\n        /* \"#utility.yul\":2716:2719   */\n      dup3\n        /* \"#utility.yul\":2709:2746   */\n      mstore\n        /* \"#utility.yul\":2634:2752   */\n      pop\n      pop\n      jump\t// out\n        /* \"#utility.yul\":2758:3181   */\n    tag_16:\n        /* \"#utility.yul\":2899:2903   */\n      0x00\n        /* \"#utility.yul\":2937:2939   */\n      0x40\n        /* \"#utility.yul\":2926:2935   */\n      dup3\n        /* \"#utility.yul\":2922:2940   */\n      add\n        /* \"#utility.yul\":2914:2940   */\n      swap1\n      pop\n        /* \"#utility.yul\":2986:2995   */\n      dup2\n        /* \"#utility.yul\":2980:2984   */\n      dup2\n        /* \"#utility.yul\":2976:2996   */\n      sub\n        /* \"#utility.yul\":2972:2973   */\n      0x00\n        /* \"#utility.yul\":2961:2970   */\n      dup4\n        /* \"#utility.yul\":2957:2974   */\n      add\n        /* \"#utility.yul\":2950:2997   */\n      mstore\n        /* \"#utility.yul\":3014:3092   */\n      tag_112\n        /* \"#utility.yul\":3087:3091   */\n      dup2\n        /* \"#utility.yul\":3078:3084   */\n      dup6\n        /* \"#utility.yul\":3014:3092   */\n      tag_45\n      jump\t// in\n    tag_112:\n        /* \"#utility.yul\":3006:3092   */\n      swap1\n      pop\n        /* \"#utility.yul\":3102:3174   */\n      tag_113\n        /* \"#utility.yul\":3170:3172   */\n      0x20\n        /* \"#utility.yul\":3159:3168   */\n      dup4\n        /* \"#utility.yul\":3155:3173   */\n      add\n        /* \"#utility.yul\":3146:3152   */\n      dup5\n        /* \"#utility.yul\":3102:3174   */\n      tag_48\n      jump\t// in\n    tag_113:\n        /* \"#utility.yul\":2758:3181   */\n      swap4\n      swap3\n      pop\n      pop\n      pop\n      jump\t// out\n        /* \"#utility.yul\":3187:3304   */\n    tag_49:\n        /* \"#utility.yul\":3296:3297   */\n      0x00\n        /* \"#utility.yul\":3293:3294   */\n      dup1\n        /* \"#utility.yul\":3286:3298   */\n      revert\n        /* \"#utility.yul\":3310:3427   */\n    tag_50:\n        /* \"#utility.yul\":3419:3420   */\n      0x00\n        /* \"#utility.yul\":3416:3417   */\n      dup1\n        /* \"#utility.yul\":3409:3421   */\n      revert\n        /* \"#utility.yul\":3433:3613   */\n    tag_51:\n        /* \"#utility.yul\":3481:3558   */\n      0x4e487b7100000000000000000000000000000000000000000000000000000000\n        /* \"#utility.yul\":3478:3479   */\n      0x00\n        /* \"#utility.yul\":3471:3559   */\n      mstore\n        /* \"#utility.yul\":3578:3582   */\n      0x41\n        /* \"#utility.yul\":3575:3576   */\n      0x04\n        /* \"#utility.yul\":3568:3583   */\n      mstore\n        /* \"#utility.yul\":3602:3606   */\n      0x24\n        /* \"#utility.yul\":3599:3600   */\n      0x00\n        /* \"#utility.yul\":3592:3607   */\n      revert\n        /* \"#utility.yul\":3619:3900   */\n    tag_52:\n        /* \"#utility.yul\":3702:3729   */\n      tag_118\n        /* \"#utility.yul\":3724:3728   */\n      dup3\n        /* \"#utility.yul\":3702:3729   */\n      tag_44\n      jump\t// in\n    tag_118:\n        /* \"#utility.yul\":3694:3700   */\n      dup2\n        /* \"#utility.yul\":3690:3730   */\n      add\n        /* \"#utility.yul\":3832:3838   */\n      dup2\n        /* \"#utility.yul\":3820:3830   */\n      dup2\n        /* \"#utility.yul\":3817:3839   */\n      lt\n        /* \"#utility.yul\":3796:3814   */\n      0xffffffffffffffff\n        /* \"#utility.yul\":3784:3794   */\n      dup3\n        /* \"#utility.yul\":3781:3815   */\n      gt\n        /* \"#utility.yul\":3778:3840   */\n      or\n        /* \"#utility.yul\":3775:3863   */\n      iszero\n      tag_119\n      jumpi\n        /* \"#utility.yul\":3843:3861   */\n      tag_120\n      tag_51\n      jump\t// in\n    tag_120:\n        /* \"#utility.yul\":3775:3863   */\n    tag_119:\n        /* \"#utility.yul\":3883:3893   */\n      dup1\n        /* \"#utility.yul\":3879:3881   */\n      0x40\n        /* \"#utility.yul\":3872:3894   */\n      mstore\n        /* \"#utility.yul\":3662:3900   */\n      pop\n        /* \"#utility.yul\":3619:3900   */\n      pop\n      pop\n      jump\t// out\n        /* \"#utility.yul\":3906:4035   */\n    tag_53:\n        /* \"#utility.yul\":3940:3946   */\n      0x00\n        /* \"#utility.yul\":3967:3987   */\n      tag_122\n      tag_34\n      jump\t// in\n    tag_122:\n        /* \"#utility.yul\":3957:3987   */\n      swap1\n      pop\n        /* \"#utility.yul\":3996:4029   */\n      tag_123\n        /* \"#utility.yul\":4024:4028   */\n      dup3\n        /* \"#utility.yul\":4016:4022   */\n      dup3\n        /* \"#utility.yul\":3996:4029   */\n      tag_52\n      jump\t// in\n    tag_123:\n        /* \"#utility.yul\":3906:4035   */\n      swap2\n      swap1\n      pop\n      jump\t// out\n        /* \"#utility.yul\":4041:4349   */\n    tag_54:\n        /* \"#utility.yul\":4103:4107   */\n      0x00\n        /* \"#utility.yul\":4193:4211   */\n      0xffffffffffffffff\n        /* \"#utility.yul\":4185:4191   */\n      dup3\n        /* \"#utility.yul\":4182:4212   */\n      gt\n        /* \"#utility.yul\":4179:4235   */\n      iszero\n      tag_125\n      jumpi\n        /* \"#utility.yul\":4215:4233   */\n      tag_126\n      tag_51\n      jump\t// in\n    tag_126:\n        /* \"#utility.yul\":4179:4235   */\n    tag_125:\n        /* \"#utility.yul\":4253:4282   */\n      tag_127\n        /* \"#utility.yul\":4275:4281   */\n      dup3\n        /* \"#utility.yul\":4253:4282   */\n      tag_44\n      jump\t// in\n    tag_127:\n        /* \"#utility.yul\":4245:4282   */\n      swap1\n      pop\n        /* \"#utility.yul\":4337:4341   */\n      0x20\n        /* \"#utility.yul\":4331:4335   */\n      dup2\n        /* \"#utility.yul\":4327:4342   */\n      add\n        /* \"#utility.yul\":4319:4342   */\n      swap1\n      pop\n        /* \"#utility.yul\":4041:4349   */\n      swap2\n      swap1\n      pop\n      jump\t// out\n        /* \"#utility.yul\":4355:4501   */\n    tag_55:\n        /* \"#utility.yul\":4452:4458   */\n      dup3\n        /* \"#utility.yul\":4447:4450   */\n      dup2\n        /* \"#utility.yul\":4442:4445   */\n      dup4\n        /* \"#utility.yul\":4429:4459   */\n      calldatacopy\n        /* \"#utility.yul\":4493:4494   */\n      0x00\n        /* \"#utility.yul\":4484:4490   */\n      dup4\n        /* \"#utility.yul\":4479:4482   */\n      dup4\n        /* \"#utility.yul\":4475:4491   */\n      add\n        /* \"#utility.yul\":4468:4495   */\n      mstore\n        /* \"#utility.yul\":4355:4501   */\n      pop\n      pop\n      pop\n      jump\t// out\n        /* \"#utility.yul\":4507:4932   */\n    tag_56:\n        /* \"#utility.yul\":4585:4590   */\n      0x00\n        /* \"#utility.yul\":4610:4676   */\n      tag_130\n        /* \"#utility.yul\":4626:4675   */\n      tag_131\n        /* \"#utility.yul\":4668:4674   */\n      dup5\n        /* \"#utility.yul\":4626:4675   */\n      tag_54\n      jump\t// in\n    tag_131:\n        /* \"#utility.yul\":4610:4676   */\n      tag_53\n      jump\t// in\n    tag_130:\n        /* \"#utility.yul\":4601:4676   */\n      swap1\n      pop\n        /* \"#utility.yul\":4699:4705   */\n      dup3\n        /* \"#utility.yul\":4692:4697   */\n      dup2\n        /* \"#utility.yul\":4685:4706   */\n      mstore\n        /* \"#utility.yul\":4737:4741   */\n      0x20\n        /* \"#utility.yul\":4730:4735   */\n      dup2\n        /* \"#utility.yul\":4726:4742   */\n      add\n        /* \"#utility.yul\":4775:4778   */\n      dup5\n        /* \"#utility.yul\":4766:4772   */\n      dup5\n        /* \"#utility.yul\":4761:4764   */\n      dup5\n        /* \"#utility.yul\":4757:4773   */\n      add\n        /* \"#utility.yul\":4754:4779   */\n      gt\n        /* \"#utility.yul\":4751:4863   */\n      iszero\n      tag_132\n      jumpi\n        /* \"#utility.yul\":4782:4861   */\n      tag_133\n      tag_50\n      jump\t// in\n    tag_133:\n        /* \"#utility.yul\":4751:4863   */\n    tag_132:\n        /* \"#utility.yul\":4872:4926   */\n      tag_134\n        /* \"#utility.yul\":4919:4925   */\n      dup5\n        /* \"#utility.yul\":4914:4917   */\n      dup3\n        /* \"#utility.yul\":4909:4912   */\n      dup6\n        /* \"#utility.yul\":4872:4926   */\n      tag_55\n      jump\t// in\n    tag_134:\n        /* \"#utility.yul\":4591:4932   */\n      pop\n        /* \"#utility.yul\":4507:4932   */\n      swap4\n      swap3\n      pop\n      pop\n      pop\n      jump\t// out\n        /* \"#utility.yul\":4952:5292   */\n    tag_57:\n        /* \"#utility.yul\":5008:5013   */\n      0x00\n        /* \"#utility.yul\":5057:5060   */\n      dup3\n        /* \"#utility.yul\":5050:5054   */\n      0x1f\n        /* \"#utility.yul\":5042:5048   */\n      dup4\n        /* \"#utility.yul\":5038:5055   */\n      add\n        /* \"#utility.yul\":5034:5061   */\n      slt\n        /* \"#utility.yul\":5024:5146   */\n      tag_136\n      jumpi\n        /* \"#utility.yul\":5065:5144   */\n      tag_137\n      tag_49\n      jump\t// in\n    tag_137:\n        /* \"#utility.yul\":5024:5146   */\n    tag_136:\n        /* \"#utility.yul\":5182:5188   */\n      dup2\n        /* \"#utility.yul\":5169:5189   */\n      calldataload\n        /* \"#utility.yul\":5207:5286   */\n      tag_138\n        /* \"#utility.yul\":5282:5285   */\n      dup5\n        /* \"#utility.yul\":5274:5280   */\n      dup3\n        /* \"#utility.yul\":5267:5271   */\n      0x20\n        /* \"#utility.yul\":5259:5265   */\n      dup7\n        /* \"#utility.yul\":5255:5272   */\n      add\n        /* \"#utility.yul\":5207:5286   */\n      tag_56\n      jump\t// in\n    tag_138:\n        /* \"#utility.yul\":5198:5286   */\n      swap2\n      pop\n        /* \"#utility.yul\":5014:5292   */\n      pop\n        /* \"#utility.yul\":4952:5292   */\n      swap3\n      swap2\n      pop\n      pop\n      jump\t// out\n        /* \"#utility.yul\":5298:5420   */\n    tag_58:\n        /* \"#utility.yul\":5371:5395   */\n      tag_140\n        /* \"#utility.yul\":5389:5394   */\n      dup2\n        /* \"#utility.yul\":5371:5395   */\n      tag_47\n      jump\t// in\n    tag_140:\n        /* \"#utility.yul\":5364:5369   */\n      dup2\n        /* \"#utility.yul\":5361:5396   */\n      eq\n        /* \"#utility.yul\":5351:5414   */\n      tag_141\n      jumpi\n        /* \"#utility.yul\":5410:5411   */\n      0x00\n        /* \"#utility.yul\":5407:5408   */\n      dup1\n        /* \"#utility.yul\":5400:5412   */\n      revert\n        /* \"#utility.yul\":5351:5414   */\n    tag_141:\n        /* \"#utility.yul\":5298:5420   */\n      pop\n      jump\t// out\n        /* \"#utility.yul\":5426:5565   */\n    tag_59:\n        /* \"#utility.yul\":5472:5477   */\n      0x00\n        /* \"#utility.yul\":5510:5516   */\n      dup2\n        /* \"#utility.yul\":5497:5517   */\n      calldataload\n        /* \"#utility.yul\":5488:5517   */\n      swap1\n      pop\n        /* \"#utility.yul\":5526:5559   */\n      tag_143\n        /* \"#utility.yul\":5553:5558   */\n      dup2\n        /* \"#utility.yul\":5526:5559   */\n      tag_58\n      jump\t// in\n    tag_143:\n        /* \"#utility.yul\":5426:5565   */\n      swap3\n      swap2\n      pop\n      pop\n      jump\t// out\n        /* \"#utility.yul\":5571:6370   */\n    tag_19:\n        /* \"#utility.yul\":5658:5664   */\n      0x00\n        /* \"#utility.yul\":5666:5672   */\n      dup1\n        /* \"#utility.yul\":5674:5680   */\n      0x00\n        /* \"#utility.yul\":5723:5725   */\n      0x60\n        /* \"#utility.yul\":5711:5720   */\n      dup5\n        /* \"#utility.yul\":5702:5709   */\n      dup7\n        /* \"#utility.yul\":5698:5721   */\n      sub\n        /* \"#utility.yul\":5694:5726   */\n      slt\n        /* \"#utility.yul\":5691:5810   */\n      iszero\n      tag_145\n      jumpi\n        /* \"#utility.yul\":5729:5808   */\n      tag_146\n      tag_35\n      jump\t// in\n    tag_146:\n        /* \"#utility.yul\":5691:5810   */\n    tag_145:\n        /* \"#utility.yul\":5877:5878   */\n      0x00\n        /* \"#utility.yul\":5866:5875   */\n      dup5\n        /* \"#utility.yul\":5862:5879   */\n      add\n        /* \"#utility.yul\":5849:5880   */\n      calldataload\n        /* \"#utility.yul\":5907:5925   */\n      0xffffffffffffffff\n        /* \"#utility.yul\":5899:5905   */\n      dup2\n        /* \"#utility.yul\":5896:5926   */\n      gt\n        /* \"#utility.yul\":5893:6010   */\n      iszero\n      tag_147\n      jumpi\n        /* \"#utility.yul\":5929:6008   */\n      tag_148\n      tag_36\n      jump\t// in\n    tag_148:\n        /* \"#utility.yul\":5893:6010   */\n    tag_147:\n        /* \"#utility.yul\":6034:6097   */\n      tag_149\n        /* \"#utility.yul\":6089:6096   */\n      dup7\n        /* \"#utility.yul\":6080:6086   */\n      dup3\n        /* \"#utility.yul\":6069:6078   */\n      dup8\n        /* \"#utility.yul\":6065:6087   */\n      add\n        /* \"#utility.yul\":6034:6097   */\n      tag_57\n      jump\t// in\n    tag_149:\n        /* \"#utility.yul\":6024:6097   */\n      swap4\n      pop\n        /* \"#utility.yul\":5820:6107   */\n      pop\n        /* \"#utility.yul\":6146:6148   */\n      0x20\n        /* \"#utility.yul\":6172:6225   */\n      tag_150\n        /* \"#utility.yul\":6217:6224   */\n      dup7\n        /* \"#utility.yul\":6208:6214   */\n      dup3\n        /* \"#utility.yul\":6197:6206   */\n      dup8\n        /* \"#utility.yul\":6193:6215   */\n      add\n        /* \"#utility.yul\":6172:6225   */\n      tag_59\n      jump\t// in\n    tag_150:\n        /* \"#utility.yul\":6162:6225   */\n      swap3\n      pop\n        /* \"#utility.yul\":6117:6235   */\n      pop\n        /* \"#utility.yul\":6274:6276   */\n      0x40\n        /* \"#utility.yul\":6300:6353   */\n      tag_151\n        /* \"#utility.yul\":6345:6352   */\n      dup7\n        /* \"#utility.yul\":6336:6342   */\n      dup3\n        /* \"#utility.yul\":6325:6334   */\n      dup8\n        /* \"#utility.yul\":6321:6343   */\n      add\n        /* \"#utility.yul\":6300:6353   */\n      tag_39\n      jump\t// in\n    tag_151:\n        /* \"#utility.yul\":6290:6353   */\n      swap2\n      pop\n        /* \"#utility.yul\":6245:6363   */\n      pop\n        /* \"#utility.yul\":5571:6370   */\n      swap3\n      pop\n      swap3\n      pop\n      swap3\n      jump\t// out\n        /* \"#utility.yul\":6376:6556   */\n    tag_60:\n        /* \"#utility.yul\":6424:6501   */\n      0x4e487b7100000000000000000000000000000000000000000000000000000000\n        /* \"#utility.yul\":6421:6422   */\n      0x00\n        /* \"#utility.yul\":6414:6502   */\n      mstore\n        /* \"#utility.yul\":6521:6525   */\n      0x22\n        /* \"#utility.yul\":6518:6519   */\n      0x04\n        /* \"#utility.yul\":6511:6526   */\n      mstore\n        /* \"#utility.yul\":6545:6549   */\n      0x24\n        /* \"#utility.yul\":6542:6543   */\n      0x00\n        /* \"#utility.yul\":6535:6550   */\n      revert\n        /* \"#utility.yul\":6562:6882   */\n    tag_25:\n        /* \"#utility.yul\":6606:6612   */\n      0x00\n        /* \"#utility.yul\":6643:6644   */\n      0x02\n        /* \"#utility.yul\":6637:6641   */\n      dup3\n        /* \"#utility.yul\":6633:6645   */\n      div\n        /* \"#utility.yul\":6623:6645   */\n      swap1\n      pop\n        /* \"#utility.yul\":6690:6691   */\n      0x01\n        /* \"#utility.yul\":6684:6688   */\n      dup3\n        /* \"#utility.yul\":6680:6692   */\n      and\n        /* \"#utility.yul\":6711:6729   */\n      dup1\n        /* \"#utility.yul\":6701:6782   */\n      tag_154\n      jumpi\n        /* \"#utility.yul\":6767:6771   */\n      0x7f\n        /* \"#utility.yul\":6759:6765   */\n      dup3\n        /* \"#utility.yul\":6755:6772   */\n      and\n        /* \"#utility.yul\":6745:6772   */\n      swap2\n      pop\n        /* \"#utility.yul\":6701:6782   */\n    tag_154:\n        /* \"#utility.yul\":6829:6831   */\n      0x20\n        /* \"#utility.yul\":6821:6827   */\n      dup3\n        /* \"#utility.yul\":6818:6832   */\n      lt\n        /* \"#utility.yul\":6798:6816   */\n      dup2\n        /* \"#utility.yul\":6795:6833   */\n      sub\n        /* \"#utility.yul\":6792:6876   */\n      tag_155\n      jumpi\n        /* \"#utility.yul\":6848:6866   */\n      tag_156\n      tag_60\n      jump\t// in\n    tag_156:\n        /* \"#utility.yul\":6792:6876   */\n    tag_155:\n        /* \"#utility.yul\":6613:6882   */\n      pop\n        /* \"#utility.yul\":6562:6882   */\n      swap2\n      swap1\n      pop\n      jump\t// out\n        /* \"#utility.yul\":6888:7029   */\n    tag_61:\n        /* \"#utility.yul\":6937:6941   */\n      0x00\n        /* \"#utility.yul\":6960:6963   */\n      dup2\n        /* \"#utility.yul\":6952:6963   */\n      swap1\n      pop\n        /* \"#utility.yul\":6983:6986   */\n      dup2\n        /* \"#utility.yul\":6980:6981   */\n      0x00\n        /* \"#utility.yul\":6973:6987   */\n      mstore\n        /* \"#utility.yul\":7017:7021   */\n      0x20\n        /* \"#utility.yul\":7014:7015   */\n      0x00\n        /* \"#utility.yul\":7004:7022   */\n      keccak256\n        /* \"#utility.yul\":6996:7022   */\n      swap1\n      pop\n        /* \"#utility.yul\":6888:7029   */\n      swap2\n      swap1\n      pop\n      jump\t// out\n        /* \"#utility.yul\":7035:7128   */\n    tag_62:\n        /* \"#utility.yul\":7072:7078   */\n      0x00\n        /* \"#utility.yul\":7119:7121   */\n      0x20\n        /* \"#utility.yul\":7114:7116   */\n      0x1f\n        /* \"#utility.yul\":7107:7112   */\n      dup4\n        /* \"#utility.yul\":7103:7117   */\n      add\n        /* \"#utility.yul\":7099:7122   */\n      div\n        /* \"#utility.yul\":7089:7122   */\n      swap1\n      pop\n        /* \"#utility.yul\":7035:7128   */\n      swap2\n      swap1\n      pop\n      jump\t// out\n        /* \"#utility.yul\":7134:7241   */\n    tag_63:\n        /* \"#utility.yul\":7178:7186   */\n      0x00\n        /* \"#utility.yul\":7228:7233   */\n      dup3\n        /* \"#utility.yul\":7222:7226   */\n      dup3\n        /* \"#utility.yul\":7218:7234   */\n      shl\n        /* \"#utility.yul\":7197:7234   */\n      swap1\n      pop\n        /* \"#utility.yul\":7134:7241   */\n      swap3\n      swap2\n      pop\n      pop\n      jump\t// out\n        /* \"#utility.yul\":7247:7640   */\n    tag_64:\n        /* \"#utility.yul\":7316:7322   */\n      0x00\n        /* \"#utility.yul\":7366:7367   */\n      0x08\n        /* \"#utility.yul\":7354:7364   */\n      dup4\n        /* \"#utility.yul\":7350:7368   */\n      mul\n        /* \"#utility.yul\":7389:7486   */\n      tag_161\n        /* \"#utility.yul\":7419:7485   */\n      0xffffffffffffffffffffffffffffffffffffffffffffffffffffffffffffffff\n        /* \"#utility.yul\":7408:7417   */\n      dup3\n        /* \"#utility.yul\":7389:7486   */\n      tag_63\n      jump\t// in\n    tag_161:\n        /* \"#utility.yul\":7507:7546   */\n      tag_162\n        /* \"#utility.yul\":7537:7545   */\n      dup7\n        /* \"#utility.yul\":7526:7535   */\n      dup4\n        /* \"#utility.yul\":7507:7546   */\n      tag_63\n      jump\t// in\n    tag_162:\n        /* \"#utility.yul\":7495:7546   */\n      swap6\n      pop\n        /* \"#utility.yul\":7579:7583   */\n      dup1\n        /* \"#utility.yul\":7575:7584   */\n      not\n        /* \"#utility.yul\":7568:7573   */\n      dup5\n        /* \"#utility.yul\":7564:7585   */\n      and\n        /* \"#utility.yul\":7555:7585   */\n      swap4\n      pop\n        /* \"#utility.yul\":7628:7632   */\n      dup1\n        /* \"#utility.yul\":7618:7626   */\n      dup7\n        /* \"#utility.yul\":7614:7633   */\n      and\n        /* \"#utility.yul\":7607:7612   */\n      dup5\n        /* \"#utility.yul\":7604:7634   */\n      or\n        /* \"#utility.yul\":7594:7634   */\n      swap3\n      pop\n        /* \"#utility.yul\":7323:7640   */\n      pop\n      pop\n        /* \"#utility.yul\":7247:7640   */\n      swap4\n      swap3\n      pop\n      pop\n      pop\n      jump\t// out\n        /* \"#utility.yul\":7646:7706   */\n    tag_65:\n        /* \"#utility.yul\":7674:7677   */\n      0x00\n        /* \"#utility.yul\":7695:7700   */\n      dup2\n        /* \"#utility.yul\":7688:7700   */\n      swap1\n      pop\n        /* \"#utility.yul\":7646:7706   */\n      swap2\n      swap1\n      pop\n      jump\t// out\n        /* \"#utility.yul\":7712:7854   */\n    tag_66:\n        /* \"#utility.yul\":7762:7771   */\n      0x00\n        /* \"#utility.yul\":7795:7848   */\n      tag_165\n        /* \"#utility.yul\":7813:7847   */\n      tag_166\n        /* \"#utility.yul\":7822:7846   */\n      tag_167\n        /* \"#utility.yul\":7840:7845   */\n      dup5\n        /* \"#utility.yul\":7822:7846   */\n      tag_37\n      jump\t// in\n    tag_167:\n        /* \"#utility.yul\":7813:7847   */\n      tag_65\n      jump\t// in\n    tag_166:\n        /* \"#utility.yul\":7795:7848   */\n      tag_37\n      jump\t// in\n    tag_165:\n        /* \"#utility.yul\":7782:7848   */\n      swap1\n      pop\n        /* \"#utility.yul\":7712:7854   */\n      swap2\n      swap1\n      pop\n      jump\t// out\n        /* \"#utility.yul\":7860:7935   */\n    tag_67:\n        /* \"#utility.yul\":7903:7906   */\n      0x00\n        /* \"#utility.yul\":7924:7929   */\n      dup2\n        /* \"#utility.yul\":7917:7929   */\n      swap1\n      pop\n        /* \"#utility.yul\":7860:7935   */\n      swap2\n      swap1\n      pop\n      jump\t// out\n        /* \"#utility.yul\":7941:8210   */\n    tag_68:\n        /* \"#utility.yul\":8051:8090   */\n      tag_170\n        /* \"#utility.yul\":8082:8089   */\n      dup4\n        /* \"#utility.yul\":8051:8090   */\n      tag_66\n      jump\t// in\n    tag_170:\n        /* \"#utility.yul\":8112:8203   */\n      tag_171\n        /* \"#utility.yul\":8161:8202   */\n      tag_172\n        /* \"#utility.yul\":8185:8201   */\n      dup3\n        /* \"#utility.yul\":8161:8202   */\n      tag_67\n      jump\t// in\n    tag_172:\n        /* \"#utility.yul\":8153:8159   */\n      dup5\n        /* \"#utility.yul\":8146:8150   */\n      dup5\n        /* \"#utility.yul\":8140:8151   */\n      sload\n        /* \"#utility.yul\":8112:8203   */\n      tag_64\n      jump\t// in\n    tag_171:\n        /* \"#utility.yul\":8106:8110   */\n      dup3\n        /* \"#utility.yul\":8099:8204   */\n      sstore\n        /* \"#utility.yul\":8017:8210   */\n      pop\n        /* \"#utility.yul\":7941:8210   */\n      pop\n      pop\n      pop\n      jump\t// out\n        /* \"#utility.yul\":8216:8289   */\n    tag_69:\n        /* \"#utility.yul\":8261:8264   */\n      0x00\n        /* \"#utility.yul\":8216:8289   */\n      swap1\n      jump\t// out\n        /* \"#utility.yul\":8295:8484   */\n    tag_70:\n        /* \"#utility.yul\":8372:8404   */\n      tag_175\n      tag_69\n      jump\t// in\n    tag_175:\n        /* \"#utility.yul\":8413:8478   */\n      tag_176\n        /* \"#utility.yul\":8471:8477   */\n      dup2\n        /* \"#utility.yul\":8463:8469   */\n      dup5\n        /* \"#utility.yul\":8457:8461   */\n      dup5\n        /* \"#utility.yul\":8413:8478   */\n      tag_68\n      jump\t// in\n    tag_176:\n        /* \"#utility.yul\":8348:8484   */\n      pop\n        /* \"#utility.yul\":8295:8484   */\n      pop\n      pop\n      jump\t// out\n        /* \"#utility.yul\":8490:8676   */\n    tag_71:\n        /* \"#utility.yul\":8550:8670   */\n    tag_178:\n        /* \"#utility.yul\":8567:8570   */\n      dup2\n        /* \"#utility.yul\":8560:8565   */\n      dup2\n        /* \"#utility.yul\":8557:8571   */\n      lt\n        /* \"#utility.yul\":8550:8670   */\n      iszero\n      tag_180\n      jumpi\n        /* \"#utility.yul\":8621:8660   */\n      tag_181\n        /* \"#utility.yul\":8658:8659   */\n      0x00\n        /* \"#utility.yul\":8651:8656   */\n      dup3\n        /* \"#utility.yul\":8621:8660   */\n      tag_70\n      jump\t// in\n    tag_181:\n        /* \"#utility.yul\":8594:8595   */\n      0x01\n        /* \"#utility.yul\":8587:8592   */\n      dup2\n        /* \"#utility.yul\":8583:8596   */\n      add\n        /* \"#utility.yul\":8574:8596   */\n      swap1\n      pop\n        /* \"#utility.yul\":8550:8670   */\n      jump(tag_178)\n    tag_180:\n        /* \"#utility.yul\":8490:8676   */\n      pop\n      pop\n      jump\t// out\n        /* \"#utility.yul\":8682:9225   */\n    tag_72:\n        /* \"#utility.yul\":8783:8785   */\n      0x1f\n        /* \"#utility.yul\":8778:8781   */\n      dup3\n        /* \"#utility.yul\":8775:8786   */\n      gt\n        /* \"#utility.yul\":8772:9218   */\n      iszero\n      tag_183\n      jumpi\n        /* \"#utility.yul\":8817:8855   */\n      tag_184\n        /* \"#utility.yul\":8849:8854   */\n      dup2\n        /* \"#utility.yul\":8817:8855   */\n      tag_61\n      jump\t// in\n    tag_184:\n        /* \"#utility.yul\":8901:8930   */\n      tag_185\n        /* \"#utility.yul\":8919:8929   */\n      dup5\n        /* \"#utility.yul\":8901:8930   */\n      tag_62\n      jump\t// in\n    tag_185:\n        /* \"#utility.yul\":8891:8899   */\n      dup2\n        /* \"#utility.yul\":8887:8931   */\n      add\n        /* \"#utility.yul\":9084:9086   */\n      0x20\n        /* \"#utility.yul\":9072:9082   */\n      dup6\n        /* \"#utility.yul\":9069:9087   */\n      lt\n        /* \"#utility.yul\":9066:9115   */\n      iszero\n      tag_186\n      jumpi\n        /* \"#utility.yul\":9105:9113   */\n      dup2\n        /* \"#utility.yul\":9090:9113   */\n      swap1\n      pop\n        /* \"#utility.yul\":9066:9115   */\n    tag_186:\n        /* \"#utility.yul\":9128:9208   */\n      tag_187\n        /* \"#utility.yul\":9184:9206   */\n      tag_188\n        /* \"#utility.yul\":9202:9205   */\n      dup6\n        /* \"#utility.yul\":9184:9206   */\n      tag_62\n      jump\t// in\n    tag_188:\n        /* \"#utility.yul\":9174:9182   */\n      dup4\n        /* \"#utility.yul\":9170:9207   */\n      add\n        /* \"#utility.yul\":9157:9168   */\n      dup3\n        /* \"#utility.yul\":9128:9208   */\n      tag_71\n      jump\t// in\n    tag_187:\n        /* \"#utility.yul\":8787:9218   */\n      pop\n      pop\n        /* \"#utility.yul\":8772:9218   */\n    tag_183:\n        /* \"#utility.yul\":8682:9225   */\n      pop\n      pop\n      pop\n      jump\t// out\n        /* \"#utility.yul\":9231:9348   */\n    tag_73:\n        /* \"#utility.yul\":9285:9293   */\n      0x00\n        /* \"#utility.yul\":9335:9340   */\n      dup3\n        /* \"#utility.yul\":9329:9333   */\n      dup3\n        /* \"#utility.yul\":9325:9341   */\n      shr\n        /* \"#utility.yul\":9304:9341   */\n      swap1\n      pop\n        /* \"#utility.yul\":9231:9348   */\n      swap3\n      swap2\n      pop\n      pop\n      jump\t// out\n        /* \"#utility.yul\":9354:9523   */\n    tag_74:\n        /* \"#utility.yul\":9398:9404   */\n      0x00\n        /* \"#utility.yul\":9431:9482   */\n      tag_191\n        /* \"#utility.yul\":9479:9480   */\n      0x00\n        /* \"#utility.yul\":9475:9481   */\n      not\n        /* \"#utility.yul\":9467:9472   */\n      dup5\n        /* \"#utility.yul\":9464:9465   */\n      0x08\n        /* \"#utility.yul\":9460:9473   */\n      mul\n        /* \"#utility.yul\":9431:9482   */\n      tag_73\n      jump\t// in\n    tag_191:\n        /* \"#utility.yul\":9427:9483   */\n      not\n        /* \"#utility.yul\":9512:9516   */\n      dup1\n        /* \"#utility.yul\":9506:9510   */\n      dup4\n        /* \"#utility.yul\":9502:9517   */\n      and\n        /* \"#utility.yul\":9492:9517   */\n      swap2\n      pop\n        /* \"#utility.yul\":9405:9523   */\n      pop\n        /* \"#utility.yul\":9354:9523   */\n      swap3\n      swap2\n      pop\n      pop\n      jump\t// out\n        /* \"#utility.yul\":9528:9823   */\n    tag_75:\n        /* \"#utility.yul\":9604:9608   */\n      0x00\n        /* \"#utility.yul\":9750:9779   */\n      tag_193\n        /* \"#utility.yul\":9775:9778   */\n      dup4\n        /* \"#utility.yul\":9769:9773   */\n      dup4\n        /* \"#utility.yul\":9750:9779   */\n      tag_74\n      jump\t// in\n    tag_193:\n        /* \"#utility.yul\":9742:9779   */\n      swap2\n      pop\n        /* \"#utility.yul\":9812:9815   */\n      dup3\n        /* \"#utility.yul\":9809:9810   */\n      0x02\n        /* \"#utility.yul\":9805:9816   */\n      mul\n        /* \"#utility.yul\":9799:9803   */\n      dup3\n        /* \"#utility.yul\":9796:9817   */\n      or\n        /* \"#utility.yul\":9788:9817   */\n      swap1\n      pop\n        /* \"#utility.yul\":9528:9823   */\n      swap3\n      swap2\n      pop\n      pop\n      jump\t// out\n        /* \"#utility.yul\":9828:11223   */\n    tag_32:\n        /* \"#utility.yul\":9945:9982   */\n      tag_195\n        /* \"#utility.yul\":9978:9981   */\n      dup3\n        /* \"#utility.yul\":9945:9982   */\n      tag_41\n      jump\t// in\n    tag_195:\n        /* \"#utility.yul\":10047:10065   */\n      0xffffffffffffffff\n        /* \"#utility.yul\":10039:10045   */\n      dup2\n        /* \"#utility.yul\":10036:10066   */\n      gt\n        /* \"#utility.yul\":10033:10089   */\n      iszero\n      tag_196\n      jumpi\n        /* \"#utility.yul\":10069:10087   */\n      tag_197\n      tag_51\n      jump\t// in\n    tag_197:\n        /* \"#utility.yul\":10033:10089   */\n    tag_196:\n        /* \"#utility.yul\":10113:10151   */\n      tag_198\n        /* \"#utility.yul\":10145:10149   */\n      dup3\n        /* \"#utility.yul\":10139:10150   */\n      sload\n        /* \"#utility.yul\":10113:10151   */\n      tag_25\n      jump\t// in\n    tag_198:\n        /* \"#utility.yul\":10198:10265   */\n      tag_199\n        /* \"#utility.yul\":10258:10264   */\n      dup3\n        /* \"#utility.yul\":10250:10256   */\n      dup3\n        /* \"#utility.yul\":10244:10248   */\n      dup6\n        /* \"#utility.yul\":10198:10265   */\n      tag_72\n      jump\t// in\n    tag_199:\n        /* \"#utility.yul\":10292:10293   */\n      0x00\n        /* \"#utility.yul\":10316:10320   */\n      0x20\n        /* \"#utility.yul\":10303:10320   */\n      swap1\n      pop\n        /* \"#utility.yul\":10348:10350   */\n      0x1f\n        /* \"#utility.yul\":10340:10346   */\n      dup4\n        /* \"#utility.yul\":10337:10351   */\n      gt\n        /* \"#utility.yul\":10365:10366   */\n      0x01\n        /* \"#utility.yul\":10360:10978   */\n      dup2\n      eq\n      tag_201\n      jumpi\n        /* \"#utility.yul\":11022:11023   */\n      0x00\n        /* \"#utility.yul\":11039:11045   */\n      dup5\n        /* \"#utility.yul\":11036:11113   */\n      iszero\n      tag_202\n      jumpi\n        /* \"#utility.yul\":11088:11097   */\n      dup3\n        /* \"#utility.yul\":11083:11086   */\n      dup8\n        /* \"#utility.yul\":11079:11098   */\n      add\n        /* \"#utility.yul\":11073:11099   */\n      mload\n        /* \"#utility.yul\":11064:11099   */\n      swap1\n      pop\n        /* \"#utility.yul\":11036:11113   */\n    tag_202:\n        /* \"#utility.yul\":11139:11206   */\n      tag_203\n        /* \"#utility.yul\":11199:11205   */\n      dup6\n        /* \"#utility.yul\":11192:11197   */\n      dup3\n        /* \"#utility.yul\":11139:11206   */\n      tag_75\n      jump\t// in\n    tag_203:\n        /* \"#utility.yul\":11133:11137   */\n      dup7\n        /* \"#utility.yul\":11126:11207   */\n      sstore\n        /* \"#utility.yul\":10995:11217   */\n      pop\n        /* \"#utility.yul\":10330:11217   */\n      jump(tag_200)\n        /* \"#utility.yul\":10360:10978   */\n    tag_201:\n        /* \"#utility.yul\":10412:10416   */\n      0x1f\n        /* \"#utility.yul\":10408:10417   */\n      not\n        /* \"#utility.yul\":10400:10406   */\n      dup5\n        /* \"#utility.yul\":10396:10418   */\n      and\n        /* \"#utility.yul\":10446:10483   */\n      tag_204\n        /* \"#utility.yul\":10478:10482   */\n      dup7\n        /* \"#utility.yul\":10446:10483   */\n      tag_61\n      jump\t// in\n    tag_204:\n        /* \"#utility.yul\":10505:10506   */\n      0x00\n        /* \"#utility.yul\":10519:10727   */\n    tag_205:\n        /* \"#utility.yul\":10533:10540   */\n      dup3\n        /* \"#utility.yul\":10530:10531   */\n      dup2\n        /* \"#utility.yul\":10527:10541   */\n      lt\n        /* \"#utility.yul\":10519:10727   */\n      iszero\n      tag_207\n      jumpi\n        /* \"#utility.yul\":10612:10621   */\n      dup5\n        /* \"#utility.yul\":10607:10610   */\n      dup10\n        /* \"#utility.yul\":10603:10622   */\n      add\n        /* \"#utility.yul\":10597:10623   */\n      mload\n        /* \"#utility.yul\":10589:10595   */\n      dup3\n        /* \"#utility.yul\":10582:10624   */\n      sstore\n        /* \"#utility.yul\":10663:10664   */\n      0x01\n        /* \"#utility.yul\":10655:10661   */\n      dup3\n        /* \"#utility.yul\":10651:10665   */\n      add\n        /* \"#utility.yul\":10641:10665   */\n      swap2\n      pop\n        /* \"#utility.yul\":10710:10712   */\n      0x20\n        /* \"#utility.yul\":10699:10708   */\n      dup6\n        /* \"#utility.yul\":10695:10713   */\n      add\n        /* \"#utility.yul\":10682:10713   */\n      swap5\n      pop\n        /* \"#utility.yul\":10556:10560   */\n      0x20\n        /* \"#utility.yul\":10553:10554   */\n      dup2\n        /* \"#utility.yul\":10549:10561   */\n      add\n        /* \"#utility.yul\":10544:10561   */\n      swap1\n      pop\n        /* \"#utility.yul\":10519:10727   */\n      jump(tag_205)\n    tag_207:\n        /* \"#utility.yul\":10755:10761   */\n      dup7\n        /* \"#utility.yul\":10746:10753   */\n      dup4\n        /* \"#utility.yul\":10743:10762   */\n      lt\n        /* \"#utility.yul\":10740:10919   */\n      iszero\n      tag_208\n      jumpi\n        /* \"#utility.yul\":10813:10822   */\n      dup5\n        /* \"#utility.yul\":10808:10811   */\n      dup10\n        /* \"#utility.yul\":10804:10823   */\n      add\n        /* \"#utility.yul\":10798:10824   */\n      mload\n        /* \"#utility.yul\":10856:10904   */\n      tag_209\n        /* \"#utility.yul\":10898:10902   */\n      0x1f\n        /* \"#utility.yul\":10890:10896   */\n      dup10\n        /* \"#utility.yul\":10886:10903   */\n      and\n        /* \"#utility.yul\":10875:10884   */\n      dup3\n        /* \"#utility.yul\":10856:10904   */\n      tag_74\n      jump\t// in\n    tag_209:\n        /* \"#utility.yul\":10848:10854   */\n      dup4\n        /* \"#utility.yul\":10841:10905   */\n      sstore\n        /* \"#utility.yul\":10763:10919   */\n      pop\n        /* \"#utility.yul\":10740:10919   */\n    tag_208:\n        /* \"#utility.yul\":10965:10966   */\n      0x01\n        /* \"#utility.yul\":10961:10962   */\n      0x02\n        /* \"#utility.yul\":10953:10959   */\n      dup9\n        /* \"#utility.yul\":10949:10963   */\n      mul\n        /* \"#utility.yul\":10945:10967   */\n      add\n        /* \"#utility.yul\":10939:10943   */\n      dup9\n        /* \"#utility.yul\":10932:10968   */\n      sstore\n        /* \"#utility.yul\":10367:10978   */\n      pop\n      pop\n      pop\n        /* \"#utility.yul\":10330:11217   */\n    tag_200:\n      pop\n        /* \"#utility.yul\":9920:11223   */\n      pop\n      pop\n      pop\n        /* \"#utility.yul\":9828:11223   */\n      pop\n      pop\n      jump\t// out\n\n    auxdata: 0xa26469706673582212202b1f0acf3e0d75feb19c4294360d1383e3c9fec12cd20a288a491b55e7c96d9b64736f6c63430008120033\n}\n",
				"bytecode": {
					"linkReferences": {},
					"object": "608060405234801561001057600080fd5b506108df806100206000396000f3fe608060405234801561001057600080fd5b50600436106100415760003560e01c80631fd3c85b14610046578063ab3545e514610076578063e0bda320146100a7575b600080fd5b610060600480360381019061005b91906102a3565b6100c3565b60405161006d91906102df565b60405180910390f35b610090600480360381019061008b91906102a3565b6100e7565b60405161009e9291906103cb565b60405180910390f35b6100c160048036038101906100bc919061055c565b6101bf565b005b600181815481106100d357600080fd5b906000526020600020016000915090505481565b60606000806000808581526020019081526020016000209050806000018160010160009054906101000a900473ffffffffffffffffffffffffffffffffffffffff16818054610135906105fa565b80601f0160208091040260200160405190810160405280929190818152602001828054610161906105fa565b80156101ae5780601f10610183576101008083540402835291602001916101ae565b820191906000526020600020905b81548152906001019060200180831161019157829003601f168201915b505050505091509250925050915091565b60008060008381526020019081526020016000209050838160000190816101e691906107d7565b50828160010160006101000a81548173ffffffffffffffffffffffffffffffffffffffff021916908373ffffffffffffffffffffffffffffffffffffffff160217905550600182908060018154018082558091505060019003906000526020600020016000909190919091505550505050565b6000604051905090565b600080fd5b600080fd5b6000819050919050565b6102808161026d565b811461028b57600080fd5b50565b60008135905061029d81610277565b92915050565b6000602082840312156102b9576102b8610263565b5b60006102c78482850161028e565b91505092915050565b6102d98161026d565b82525050565b60006020820190506102f460008301846102d0565b92915050565b600081519050919050565b600082825260208201905092915050565b60005b83811015610334578082015181840152602081019050610319565b60008484015250505050565b6000601f19601f8301169050919050565b600061035c826102fa565b6103668185610305565b9350610376818560208601610316565b61037f81610340565b840191505092915050565b600073ffffffffffffffffffffffffffffffffffffffff82169050919050565b60006103b58261038a565b9050919050565b6103c5816103aa565b82525050565b600060408201905081810360008301526103e58185610351565b90506103f460208301846103bc565b9392505050565b600080fd5b600080fd5b7f4e487b7100000000000000000000000000000000000000000000000000000000600052604160045260246000fd5b61043d82610340565b810181811067ffffffffffffffff8211171561045c5761045b610405565b5b80604052505050565b600061046f610259565b905061047b8282610434565b919050565b600067ffffffffffffffff82111561049b5761049a610405565b5b6104a482610340565b9050602081019050919050565b82818337600083830152505050565b60006104d36104ce84610480565b610465565b9050828152602081018484840111156104ef576104ee610400565b5b6104fa8482856104b1565b509392505050565b600082601f830112610517576105166103fb565b5b81356105278482602086016104c0565b91505092915050565b610539816103aa565b811461054457600080fd5b50565b60008135905061055681610530565b92915050565b60008060006060848603121561057557610574610263565b5b600084013567ffffffffffffffff81111561059357610592610268565b5b61059f86828701610502565b93505060206105b086828701610547565b92505060406105c18682870161028e565b9150509250925092565b7f4e487b7100000000000000000000000000000000000000000000000000000000600052602260045260246000fd5b6000600282049050600182168061061257607f821691505b602082108103610625576106246105cb565b5b50919050565b60008190508160005260206000209050919050565b60006020601f8301049050919050565b600082821b905092915050565b60006008830261068d7fffffffffffffffffffffffffffffffffffffffffffffffffffffffffffffffff82610650565b6106978683610650565b95508019841693508086168417925050509392505050565b6000819050919050565b60006106d46106cf6106ca8461026d565b6106af565b61026d565b9050919050565b6000819050919050565b6106ee836106b9565b6107026106fa826106db565b84845461065d565b825550505050565b600090565b61071761070a565b6107228184846106e5565b505050565b5b818110156107465761073b60008261070f565b600181019050610728565b5050565b601f82111561078b5761075c8161062b565b61076584610640565b81016020851015610774578190505b61078861078085610640565b830182610727565b50505b505050565b600082821c905092915050565b60006107ae60001984600802610790565b1980831691505092915050565b60006107c7838361079d565b9150826002028217905092915050565b6107e0826102fa565b67ffffffffffffffff8111156107f9576107f8610405565b5b61080382546105fa565b61080e82828561074a565b600060209050601f831160018114610841576000841561082f578287015190505b61083985826107bb565b8655506108a1565b601f19841661084f8661062b565b60005b8281101561087757848901518255600182019150602085019450602081019050610852565b868310156108945784890151610890601f89168261079d565b8355505b6001600288020188555050505b50505050505056fea26469706673582212202b1f0acf3e0d75feb19c4294360d1383e3c9fec12cd20a288a491b55e7c96d9b64736f6c63430008120033",
					"opcodes": "PUSH1 0x80 PUSH1 0x40 MSTORE CALLVALUE DUP1 ISZERO PUSH2 0x10 JUMPI PUSH1 0x0 DUP1 REVERT JUMPDEST POP PUSH2 0x8DF DUP1 PUSH2 0x20 PUSH1 0x0 CODECOPY PUSH1 0x0 RETURN INVALID PUSH1 0x80 PUSH1 0x40 MSTORE CALLVALUE DUP1 ISZERO PUSH2 0x10 JUMPI PUSH1 0x0 DUP1 REVERT JUMPDEST POP PUSH1 0x4 CALLDATASIZE LT PUSH2 0x41 JUMPI PUSH1 0x0 CALLDATALOAD PUSH1 0xE0 SHR DUP1 PUSH4 0x1FD3C85B EQ PUSH2 0x46 JUMPI DUP1 PUSH4 0xAB3545E5 EQ PUSH2 0x76 JUMPI DUP1 PUSH4 0xE0BDA320 EQ PUSH2 0xA7 JUMPI JUMPDEST PUSH1 0x0 DUP1 REVERT JUMPDEST PUSH2 0x60 PUSH1 0x4 DUP1 CALLDATASIZE SUB DUP2 ADD SWAP1 PUSH2 0x5B SWAP2 SWAP1 PUSH2 0x2A3 JUMP JUMPDEST PUSH2 0xC3 JUMP JUMPDEST PUSH1 0x40 MLOAD PUSH2 0x6D SWAP2 SWAP1 PUSH2 0x2DF JUMP JUMPDEST PUSH1 0x40 MLOAD DUP1 SWAP2 SUB SWAP1 RETURN JUMPDEST PUSH2 0x90 PUSH1 0x4 DUP1 CALLDATASIZE SUB DUP2 ADD SWAP1 PUSH2 0x8B SWAP2 SWAP1 PUSH2 0x2A3 JUMP JUMPDEST PUSH2 0xE7 JUMP JUMPDEST PUSH1 0x40 MLOAD PUSH2 0x9E SWAP3 SWAP2 SWAP1 PUSH2 0x3CB JUMP JUMPDEST PUSH1 0x40 MLOAD DUP1 SWAP2 SUB SWAP1 RETURN JUMPDEST PUSH2 0xC1 PUSH1 0x4 DUP1 CALLDATASIZE SUB DUP2 ADD SWAP1 PUSH2 0xBC SWAP2 SWAP1 PUSH2 0x55C JUMP JUMPDEST PUSH2 0x1BF JUMP JUMPDEST STOP JUMPDEST PUSH1 0x1 DUP2 DUP2 SLOAD DUP2 LT PUSH2 0xD3 JUMPI PUSH1 0x0 DUP1 REVERT JUMPDEST SWAP1 PUSH1 0x0 MSTORE PUSH1 0x20 PUSH1 0x0 KECCAK256 ADD PUSH1 0x0 SWAP2 POP SWAP1 POP SLOAD DUP2 JUMP JUMPDEST PUSH1 0x60 PUSH1 0x0 DUP1 PUSH1 0x0 DUP1 DUP6 DUP2 MSTORE PUSH1 0x20 ADD SWAP1 DUP2 MSTORE PUSH1 0x20 ADD PUSH1 0x0 KECCAK256 SWAP1 POP DUP1 PUSH1 0x0 ADD DUP2 PUSH1 0x1 ADD PUSH1 0x0 SWAP1 SLOAD SWAP1 PUSH2 0x100 EXP SWAP1 DIV PUSH20 0xFFFFFFFFFFFFFFFFFFFFFFFFFFFFFFFFFFFFFFFF AND DUP2 DUP1 SLOAD PUSH2 0x135 SWAP1 PUSH2 0x5FA JUMP JUMPDEST DUP1 PUSH1 0x1F ADD PUSH1 0x20 DUP1 SWAP2 DIV MUL PUSH1 0x20 ADD PUSH1 0x40 MLOAD SWAP1 DUP2 ADD PUSH1 0x40 MSTORE DUP1 SWAP3 SWAP2 SWAP1 DUP2 DUP2 MSTORE PUSH1 0x20 ADD DUP3 DUP1 SLOAD PUSH2 0x161 SWAP1 PUSH2 0x5FA JUMP JUMPDEST DUP1 ISZERO PUSH2 0x1AE JUMPI DUP1 PUSH1 0x1F LT PUSH2 0x183 JUMPI PUSH2 0x100 DUP1 DUP4 SLOAD DIV MUL DUP4 MSTORE SWAP2 PUSH1 0x20 ADD SWAP2 PUSH2 0x1AE JUMP JUMPDEST DUP3 ADD SWAP2 SWAP1 PUSH1 0x0 MSTORE PUSH1 0x20 PUSH1 0x0 KECCAK256 SWAP1 JUMPDEST DUP2 SLOAD DUP2 MSTORE SWAP1 PUSH1 0x1 ADD SWAP1 PUSH1 0x20 ADD DUP1 DUP4 GT PUSH2 0x191 JUMPI DUP3 SWAP1 SUB PUSH1 0x1F AND DUP3 ADD SWAP2 JUMPDEST POP POP POP POP POP SWAP2 POP SWAP3 POP SWAP3 POP POP SWAP2 POP SWAP2 JUMP JUMPDEST PUSH1 0x0 DUP1 PUSH1 0x0 DUP4 DUP2 MSTORE PUSH1 0x20 ADD SWAP1 DUP2 MSTORE PUSH1 0x20 ADD PUSH1 0x0 KECCAK256 SWAP1 POP DUP4 DUP2 PUSH1 0x0 ADD SWAP1 DUP2 PUSH2 0x1E6 SWAP2 SWAP1 PUSH2 0x7D7 JUMP JUMPDEST POP DUP3 DUP2 PUSH1 0x1 ADD PUSH1 0x0 PUSH2 0x100 EXP DUP2 SLOAD DUP2 PUSH20 0xFFFFFFFFFFFFFFFFFFFFFFFFFFFFFFFFFFFFFFFF MUL NOT AND SWAP1 DUP4 PUSH20 0xFFFFFFFFFFFFFFFFFFFFFFFFFFFFFFFFFFFFFFFF AND MUL OR SWAP1 SSTORE POP PUSH1 0x1 DUP3 SWAP1 DUP1 PUSH1 0x1 DUP2 SLOAD ADD DUP1 DUP3 SSTORE DUP1 SWAP2 POP POP PUSH1 0x1 SWAP1 SUB SWAP1 PUSH1 0x0 MSTORE PUSH1 0x20 PUSH1 0x0 KECCAK256 ADD PUSH1 0x0 SWAP1 SWAP2 SWAP1 SWAP2 SWAP1 SWAP2 POP SSTORE POP POP POP POP JUMP JUMPDEST PUSH1 0x0 PUSH1 0x40 MLOAD SWAP1 POP SWAP1 JUMP JUMPDEST PUSH1 0x0 DUP1 REVERT JUMPDEST PUSH1 0x0 DUP1 REVERT JUMPDEST PUSH1 0x0 DUP2 SWAP1 POP SWAP2 SWAP1 POP JUMP JUMPDEST PUSH2 0x280 DUP2 PUSH2 0x26D JUMP JUMPDEST DUP2 EQ PUSH2 0x28B JUMPI PUSH1 0x0 DUP1 REVERT JUMPDEST POP JUMP JUMPDEST PUSH1 0x0 DUP2 CALLDATALOAD SWAP1 POP PUSH2 0x29D DUP2 PUSH2 0x277 JUMP JUMPDEST SWAP3 SWAP2 POP POP JUMP JUMPDEST PUSH1 0x0 PUSH1 0x20 DUP3 DUP5 SUB SLT ISZERO PUSH2 0x2B9 JUMPI PUSH2 0x2B8 PUSH2 0x263 JUMP JUMPDEST JUMPDEST PUSH1 0x0 PUSH2 0x2C7 DUP5 DUP3 DUP6 ADD PUSH2 0x28E JUMP JUMPDEST SWAP2 POP POP SWAP3 SWAP2 POP POP JUMP JUMPDEST PUSH2 0x2D9 DUP2 PUSH2 0x26D JUMP JUMPDEST DUP3 MSTORE POP POP JUMP JUMPDEST PUSH1 0x0 PUSH1 0x20 DUP3 ADD SWAP1 POP PUSH2 0x2F4 PUSH1 0x0 DUP4 ADD DUP5 PUSH2 0x2D0 JUMP JUMPDEST SWAP3 SWAP2 POP POP JUMP JUMPDEST PUSH1 0x0 DUP2 MLOAD SWAP1 POP SWAP2 SWAP1 POP JUMP JUMPDEST PUSH1 0x0 DUP3 DUP3 MSTORE PUSH1 0x20 DUP3 ADD SWAP1 POP SWAP3 SWAP2 POP POP JUMP JUMPDEST PUSH1 0x0 JUMPDEST DUP4 DUP2 LT ISZERO PUSH2 0x334 JUMPI DUP1 DUP3 ADD MLOAD DUP2 DUP5 ADD MSTORE PUSH1 0x20 DUP2 ADD SWAP1 POP PUSH2 0x319 JUMP JUMPDEST PUSH1 0x0 DUP5 DUP5 ADD MSTORE POP POP POP POP JUMP JUMPDEST PUSH1 0x0 PUSH1 0x1F NOT PUSH1 0x1F DUP4 ADD AND SWAP1 POP SWAP2 SWAP1 POP JUMP JUMPDEST PUSH1 0x0 PUSH2 0x35C DUP3 PUSH2 0x2FA JUMP JUMPDEST PUSH2 0x366 DUP2 DUP6 PUSH2 0x305 JUMP JUMPDEST SWAP4 POP PUSH2 0x376 DUP2 DUP6 PUSH1 0x20 DUP7 ADD PUSH2 0x316 JUMP JUMPDEST PUSH2 0x37F DUP2 PUSH2 0x340 JUMP JUMPDEST DUP5 ADD SWAP2 POP POP SWAP3 SWAP2 POP POP JUMP JUMPDEST PUSH1 0x0 PUSH20 0xFFFFFFFFFFFFFFFFFFFFFFFFFFFFFFFFFFFFFFFF DUP3 AND SWAP1 POP SWAP2 SWAP1 POP JUMP JUMPDEST PUSH1 0x0 PUSH2 0x3B5 DUP3 PUSH2 0x38A JUMP JUMPDEST SWAP1 POP SWAP2 SWAP1 POP JUMP JUMPDEST PUSH2 0x3C5 DUP2 PUSH2 0x3AA JUMP JUMPDEST DUP3 MSTORE POP POP JUMP JUMPDEST PUSH1 0x0 PUSH1 0x40 DUP3 ADD SWAP1 POP DUP2 DUP2 SUB PUSH1 0x0 DUP4 ADD MSTORE PUSH2 0x3E5 DUP2 DUP6 PUSH2 0x351 JUMP JUMPDEST SWAP1 POP PUSH2 0x3F4 PUSH1 0x20 DUP4 ADD DUP5 PUSH2 0x3BC JUMP JUMPDEST SWAP4 SWAP3 POP POP POP JUMP JUMPDEST PUSH1 0x0 DUP1 REVERT JUMPDEST PUSH1 0x0 DUP1 REVERT JUMPDEST PUSH32 0x4E487B7100000000000000000000000000000000000000000000000000000000 PUSH1 0x0 MSTORE PUSH1 0x41 PUSH1 0x4 MSTORE PUSH1 0x24 PUSH1 0x0 REVERT JUMPDEST PUSH2 0x43D DUP3 PUSH2 0x340 JUMP JUMPDEST DUP2 ADD DUP2 DUP2 LT PUSH8 0xFFFFFFFFFFFFFFFF DUP3 GT OR ISZERO PUSH2 0x45C JUMPI PUSH2 0x45B PUSH2 0x405 JUMP JUMPDEST JUMPDEST DUP1 PUSH1 0x40 MSTORE POP POP POP JUMP JUMPDEST PUSH1 0x0 PUSH2 0x46F PUSH2 0x259 JUMP JUMPDEST SWAP1 POP PUSH2 0x47B DUP3 DUP3 PUSH2 0x434 JUMP JUMPDEST SWAP2 SWAP1 POP JUMP JUMPDEST PUSH1 0x0 PUSH8 0xFFFFFFFFFFFFFFFF DUP3 GT ISZERO PUSH2 0x49B JUMPI PUSH2 0x49A PUSH2 0x405 JUMP JUMPDEST JUMPDEST PUSH2 0x4A4 DUP3 PUSH2 0x340 JUMP JUMPDEST SWAP1 POP PUSH1 0x20 DUP2 ADD SWAP1 POP SWAP2 SWAP1 POP JUMP JUMPDEST DUP3 DUP2 DUP4 CALLDATACOPY PUSH1 0x0 DUP4 DUP4 ADD MSTORE POP POP POP JUMP JUMPDEST PUSH1 0x0 PUSH2 0x4D3 PUSH2 0x4CE DUP5 PUSH2 0x480 JUMP JUMPDEST PUSH2 0x465 JUMP JUMPDEST SWAP1 POP DUP3 DUP2 MSTORE PUSH1 0x20 DUP2 ADD DUP5 DUP5 DUP5 ADD GT ISZERO PUSH2 0x4EF JUMPI PUSH2 0x4EE PUSH2 0x400 JUMP JUMPDEST JUMPDEST PUSH2 0x4FA DUP5 DUP3 DUP6 PUSH2 0x4B1 JUMP JUMPDEST POP SWAP4 SWAP3 POP POP POP JUMP JUMPDEST PUSH1 0x0 DUP3 PUSH1 0x1F DUP4 ADD SLT PUSH2 0x517 JUMPI PUSH2 0x516 PUSH2 0x3FB JUMP JUMPDEST JUMPDEST DUP2 CALLDATALOAD PUSH2 0x527 DUP5 DUP3 PUSH1 0x20 DUP7 ADD PUSH2 0x4C0 JUMP JUMPDEST SWAP2 POP POP SWAP3 SWAP2 POP POP JUMP JUMPDEST PUSH2 0x539 DUP2 PUSH2 0x3AA JUMP JUMPDEST DUP2 EQ PUSH2 0x544 JUMPI PUSH1 0x0 DUP1 REVERT JUMPDEST POP JUMP JUMPDEST PUSH1 0x0 DUP2 CALLDATALOAD SWAP1 POP PUSH2 0x556 DUP2 PUSH2 0x530 JUMP JUMPDEST SWAP3 SWAP2 POP POP JUMP JUMPDEST PUSH1 0x0 DUP1 PUSH1 0x0 PUSH1 0x60 DUP5 DUP7 SUB SLT ISZERO PUSH2 0x575 JUMPI PUSH2 0x574 PUSH2 0x263 JUMP JUMPDEST JUMPDEST PUSH1 0x0 DUP5 ADD CALLDATALOAD PUSH8 0xFFFFFFFFFFFFFFFF DUP2 GT ISZERO PUSH2 0x593 JUMPI PUSH2 0x592 PUSH2 0x268 JUMP JUMPDEST JUMPDEST PUSH2 0x59F DUP7 DUP3 DUP8 ADD PUSH2 0x502 JUMP JUMPDEST SWAP4 POP POP PUSH1 0x20 PUSH2 0x5B0 DUP7 DUP3 DUP8 ADD PUSH2 0x547 JUMP JUMPDEST SWAP3 POP POP PUSH1 0x40 PUSH2 0x5C1 DUP7 DUP3 DUP8 ADD PUSH2 0x28E JUMP JUMPDEST SWAP2 POP POP SWAP3 POP SWAP3 POP SWAP3 JUMP JUMPDEST PUSH32 0x4E487B7100000000000000000000000000000000000000000000000000000000 PUSH1 0x0 MSTORE PUSH1 0x22 PUSH1 0x4 MSTORE PUSH1 0x24 PUSH1 0x0 REVERT JUMPDEST PUSH1 0x0 PUSH1 0x2 DUP3 DIV SWAP1 POP PUSH1 0x1 DUP3 AND DUP1 PUSH2 0x612 JUMPI PUSH1 0x7F DUP3 AND SWAP2 POP JUMPDEST PUSH1 0x20 DUP3 LT DUP2 SUB PUSH2 0x625 JUMPI PUSH2 0x624 PUSH2 0x5CB JUMP JUMPDEST JUMPDEST POP SWAP2 SWAP1 POP JUMP JUMPDEST PUSH1 0x0 DUP2 SWAP1 POP DUP2 PUSH1 0x0 MSTORE PUSH1 0x20 PUSH1 0x0 KECCAK256 SWAP1 POP SWAP2 SWAP1 POP JUMP JUMPDEST PUSH1 0x0 PUSH1 0x20 PUSH1 0x1F DUP4 ADD DIV SWAP1 POP SWAP2 SWAP1 POP JUMP JUMPDEST PUSH1 0x0 DUP3 DUP3 SHL SWAP1 POP SWAP3 SWAP2 POP POP JUMP JUMPDEST PUSH1 0x0 PUSH1 0x8 DUP4 MUL PUSH2 0x68D PUSH32 0xFFFFFFFFFFFFFFFFFFFFFFFFFFFFFFFFFFFFFFFFFFFFFFFFFFFFFFFFFFFFFFFF DUP3 PUSH2 0x650 JUMP JUMPDEST PUSH2 0x697 DUP7 DUP4 PUSH2 0x650 JUMP JUMPDEST SWAP6 POP DUP1 NOT DUP5 AND SWAP4 POP DUP1 DUP7 AND DUP5 OR SWAP3 POP POP POP SWAP4 SWAP3 POP POP POP JUMP JUMPDEST PUSH1 0x0 DUP2 SWAP1 POP SWAP2 SWAP1 POP JUMP JUMPDEST PUSH1 0x0 PUSH2 0x6D4 PUSH2 0x6CF PUSH2 0x6CA DUP5 PUSH2 0x26D JUMP JUMPDEST PUSH2 0x6AF JUMP JUMPDEST PUSH2 0x26D JUMP JUMPDEST SWAP1 POP SWAP2 SWAP1 POP JUMP JUMPDEST PUSH1 0x0 DUP2 SWAP1 POP SWAP2 SWAP1 POP JUMP JUMPDEST PUSH2 0x6EE DUP4 PUSH2 0x6B9 JUMP JUMPDEST PUSH2 0x702 PUSH2 0x6FA DUP3 PUSH2 0x6DB JUMP JUMPDEST DUP5 DUP5 SLOAD PUSH2 0x65D JUMP JUMPDEST DUP3 SSTORE POP POP POP POP JUMP JUMPDEST PUSH1 0x0 SWAP1 JUMP JUMPDEST PUSH2 0x717 PUSH2 0x70A JUMP JUMPDEST PUSH2 0x722 DUP2 DUP5 DUP5 PUSH2 0x6E5 JUMP JUMPDEST POP POP POP JUMP JUMPDEST JUMPDEST DUP2 DUP2 LT ISZERO PUSH2 0x746 JUMPI PUSH2 0x73B PUSH1 0x0 DUP3 PUSH2 0x70F JUMP JUMPDEST PUSH1 0x1 DUP2 ADD SWAP1 POP PUSH2 0x728 JUMP JUMPDEST POP POP JUMP JUMPDEST PUSH1 0x1F DUP3 GT ISZERO PUSH2 0x78B JUMPI PUSH2 0x75C DUP2 PUSH2 0x62B JUMP JUMPDEST PUSH2 0x765 DUP5 PUSH2 0x640 JUMP JUMPDEST DUP2 ADD PUSH1 0x20 DUP6 LT ISZERO PUSH2 0x774 JUMPI DUP2 SWAP1 POP JUMPDEST PUSH2 0x788 PUSH2 0x780 DUP6 PUSH2 0x640 JUMP JUMPDEST DUP4 ADD DUP3 PUSH2 0x727 JUMP JUMPDEST POP POP JUMPDEST POP POP POP JUMP JUMPDEST PUSH1 0x0 DUP3 DUP3 SHR SWAP1 POP SWAP3 SWAP2 POP POP JUMP JUMPDEST PUSH1 0x0 PUSH2 0x7AE PUSH1 0x0 NOT DUP5 PUSH1 0x8 MUL PUSH2 0x790 JUMP JUMPDEST NOT DUP1 DUP4 AND SWAP2 POP POP SWAP3 SWAP2 POP POP JUMP JUMPDEST PUSH1 0x0 PUSH2 0x7C7 DUP4 DUP4 PUSH2 0x79D JUMP JUMPDEST SWAP2 POP DUP3 PUSH1 0x2 MUL DUP3 OR SWAP1 POP SWAP3 SWAP2 POP POP JUMP JUMPDEST PUSH2 0x7E0 DUP3 PUSH2 0x2FA JUMP JUMPDEST PUSH8 0xFFFFFFFFFFFFFFFF DUP2 GT ISZERO PUSH2 0x7F9 JUMPI PUSH2 0x7F8 PUSH2 0x405 JUMP JUMPDEST JUMPDEST PUSH2 0x803 DUP3 SLOAD PUSH2 0x5FA JUMP JUMPDEST PUSH2 0x80E DUP3 DUP3 DUP6 PUSH2 0x74A JUMP JUMPDEST PUSH1 0x0 PUSH1 0x20 SWAP1 POP PUSH1 0x1F DUP4 GT PUSH1 0x1 DUP2 EQ PUSH2 0x841 JUMPI PUSH1 0x0 DUP5 ISZERO PUSH2 0x82F JUMPI DUP3 DUP8 ADD MLOAD SWAP1 POP JUMPDEST PUSH2 0x839 DUP6 DUP3 PUSH2 0x7BB JUMP JUMPDEST DUP7 SSTORE POP PUSH2 0x8A1 JUMP JUMPDEST PUSH1 0x1F NOT DUP5 AND PUSH2 0x84F DUP7 PUSH2 0x62B JUMP JUMPDEST PUSH1 0x0 JUMPDEST DUP3 DUP2 LT ISZERO PUSH2 0x877 JUMPI DUP5 DUP10 ADD MLOAD DUP3 SSTORE PUSH1 0x1 DUP3 ADD SWAP2 POP PUSH1 0x20 DUP6 ADD SWAP5 POP PUSH1 0x20 DUP2 ADD SWAP1 POP PUSH2 0x852 JUMP JUMPDEST DUP7 DUP4 LT ISZERO PUSH2 0x894 JUMPI DUP5 DUP10 ADD MLOAD PUSH2 0x890 PUSH1 0x1F DUP10 AND DUP3 PUSH2 0x79D JUMP JUMPDEST DUP4 SSTORE POP JUMPDEST PUSH1 0x1 PUSH1 0x2 DUP9 MUL ADD DUP9 SSTORE POP POP POP JUMPDEST POP POP POP POP POP POP JUMP INVALID LOG2 PUSH5 0x6970667358 0x22 SLT KECCAK256 0x2B 0x1F EXP 0xCF RETURNDATACOPY 0xD PUSH22 0xFEB19C4294360D1383E3C9FEC12CD20A288A491B55E7 0xC9 PUSH14 0x9B64736F6C634300081200330000 "
				},
				"gasEstimates": {
					"creation": {
						"codeDepositCost": "454200",
						"executionCost": "486",
						"totalCost": "454686"
					},
					"external": {
						"getMember(uint256)": "infinite",
						"memberIds(uint256)": "infinite",
						"registerMember(string,address,uint256)": "infinite"
					}
				},
				"methodIdentifiers": {
					"getMember(uint256)": "ab3545e5",
					"memberIds(uint256)": "1fd3c85b",
					"registerMember(string,address,uint256)": "e0bda320"
				}
			},
			"storageLayout": {
				"storage": [
					{
						"astId": 11,
						"contract": ".deps/contracts/Members.sol:Members",
						"label": "members",
						"offset": 0,
						"slot": "0",
						"type": "t_mapping(t_uint256,t_struct(memberInfo)6_storage)"
					},
					{
						"astId": 14,
						"contract": ".deps/contracts/Members.sol:Members",
						"label": "memberIds",
						"offset": 0,
						"slot": "1",
						"type": "t_array(t_uint256)dyn_storage"
					}
				],
				"types": {
					"t_address": {
						"encoding": "inplace",
						"label": "address",
						"numberOfBytes": "20"
					},
					"t_array(t_uint256)dyn_storage": {
						"base": "t_uint256",
						"encoding": "dynamic_array",
						"label": "uint256[]",
						"numberOfBytes": "32"
					},
					"t_mapping(t_uint256,t_struct(memberInfo)6_storage)": {
						"encoding": "mapping",
						"key": "t_uint256",
						"label": "mapping(uint256 => struct Members.memberInfo)",
						"numberOfBytes": "32",
						"value": "t_struct(memberInfo)6_storage"
					},
					"t_string_storage": {
						"encoding": "bytes",
						"label": "string",
						"numberOfBytes": "32"
					},
					"t_struct(memberInfo)6_storage": {
						"encoding": "inplace",
						"label": "struct Members.memberInfo",
						"members": [
							{
								"astId": 3,
								"contract": ".deps/contracts/Members.sol:Members",
								"label": "username",
								"offset": 0,
								"slot": "0",
								"type": "t_string_storage"
							},
							{
								"astId": 5,
								"contract": ".deps/contracts/Members.sol:Members",
								"label": "useraddress",
								"offset": 0,
								"slot": "1",
								"type": "t_address"
							}
						],
						"numberOfBytes": "64"
					},
					"t_uint256": {
						"encoding": "inplace",
						"label": "uint256",
						"numberOfBytes": "32"
					}
				}
			},
			"userdoc": {
				"kind": "user",
				"methods": {},
				"version": 1
			}
		}
	}
}